{
    "_format": "hh-sol-artifact-1",
    "contractName": "SionToken",
    "sourceName": "contracts/SionToken.sol",
    "abi": [
        {
            "inputs": [],
            "stateMutability": "nonpayable",
            "type": "constructor"
        },
        {
            "anonymous": false,
            "inputs": [
                {
                    "indexed": true,
                    "internalType": "address",
                    "name": "owner",
                    "type": "address"
                },
                {
                    "indexed": true,
                    "internalType": "address",
                    "name": "spender",
                    "type": "address"
                },
                {
                    "indexed": false,
                    "internalType": "uint256",
                    "name": "value",
                    "type": "uint256"
                }
            ],
            "name": "Approval",
            "type": "event"
        },
        {
            "anonymous": false,
            "inputs": [
                {
                    "indexed": true,
                    "internalType": "address",
                    "name": "previousOwner",
                    "type": "address"
                },
                {
                    "indexed": true,
                    "internalType": "address",
                    "name": "newOwner",
                    "type": "address"
                }
            ],
            "name": "OwnershipTransferred",
            "type": "event"
        },
        {
            "anonymous": false,
            "inputs": [
                {
                    "indexed": true,
                    "internalType": "address",
                    "name": "from",
                    "type": "address"
                },
                {
                    "indexed": true,
                    "internalType": "address",
                    "name": "to",
                    "type": "address"
                },
                {
                    "indexed": false,
                    "internalType": "uint256",
                    "name": "value",
                    "type": "uint256"
                }
            ],
            "name": "Transfer",
            "type": "event"
        },
        {
            "inputs": [
                {
                    "internalType": "address",
                    "name": "owner",
                    "type": "address"
                },
                {
                    "internalType": "address",
                    "name": "spender",
                    "type": "address"
                }
            ],
            "name": "allowance",
            "outputs": [
                {
                    "internalType": "uint256",
                    "name": "",
                    "type": "uint256"
                }
            ],
            "stateMutability": "view",
            "type": "function"
        },
        {
            "inputs": [
                {
                    "internalType": "address",
                    "name": "spender",
                    "type": "address"
                },
                {
                    "internalType": "uint256",
                    "name": "amount",
                    "type": "uint256"
                }
            ],
            "name": "approve",
            "outputs": [
                {
                    "internalType": "bool",
                    "name": "",
                    "type": "bool"
                }
            ],
            "stateMutability": "nonpayable",
            "type": "function"
        },
        {
            "inputs": [
                {
                    "internalType": "address",
                    "name": "account",
                    "type": "address"
                }
            ],
            "name": "balanceOf",
            "outputs": [
                {
                    "internalType": "uint256",
                    "name": "",
                    "type": "uint256"
                }
            ],
            "stateMutability": "view",
            "type": "function"
        },
        {
            "inputs": [],
            "name": "decimals",
            "outputs": [
                {
                    "internalType": "uint8",
                    "name": "",
                    "type": "uint8"
                }
            ],
            "stateMutability": "view",
            "type": "function"
        },
        {
            "inputs": [
                {
                    "internalType": "address",
                    "name": "spender",
                    "type": "address"
                },
                {
                    "internalType": "uint256",
                    "name": "subtractedValue",
                    "type": "uint256"
                }
            ],
            "name": "decreaseAllowance",
            "outputs": [
                {
                    "internalType": "bool",
                    "name": "",
                    "type": "bool"
                }
            ],
            "stateMutability": "nonpayable",
            "type": "function"
        },
        {
            "inputs": [
                {
                    "internalType": "address",
                    "name": "spender",
                    "type": "address"
                },
                {
                    "internalType": "uint256",
                    "name": "addedValue",
                    "type": "uint256"
                }
            ],
            "name": "increaseAllowance",
            "outputs": [
                {
                    "internalType": "bool",
                    "name": "",
                    "type": "bool"
                }
            ],
            "stateMutability": "nonpayable",
            "type": "function"
        },
        {
            "inputs": [
                {
                    "internalType": "address",
                    "name": "account",
                    "type": "address"
                },
                {
                    "internalType": "uint256",
                    "name": "amount",
                    "type": "uint256"
                }
            ],
            "name": "mintSionTokens",
            "outputs": [],
            "stateMutability": "nonpayable",
            "type": "function"
        },
        {
            "inputs": [],
            "name": "name",
            "outputs": [
                {
                    "internalType": "string",
                    "name": "",
                    "type": "string"
                }
            ],
            "stateMutability": "view",
            "type": "function"
        },
        {
            "inputs": [],
            "name": "owner",
            "outputs": [
                {
                    "internalType": "address",
                    "name": "",
                    "type": "address"
                }
            ],
            "stateMutability": "view",
            "type": "function"
        },
        {
            "inputs": [],
            "name": "renounceOwnership",
            "outputs": [],
            "stateMutability": "nonpayable",
            "type": "function"
        },
        {
            "inputs": [],
            "name": "symbol",
            "outputs": [
                {
                    "internalType": "string",
                    "name": "",
                    "type": "string"
                }
            ],
            "stateMutability": "view",
            "type": "function"
        },
        {
            "inputs": [],
            "name": "totalSupply",
            "outputs": [
                {
                    "internalType": "uint256",
                    "name": "",
                    "type": "uint256"
                }
            ],
            "stateMutability": "view",
            "type": "function"
        },
        {
            "inputs": [
                {
                    "internalType": "address",
                    "name": "recipient",
                    "type": "address"
                },
                {
                    "internalType": "uint256",
                    "name": "amount",
                    "type": "uint256"
                }
            ],
            "name": "transfer",
            "outputs": [
                {
                    "internalType": "bool",
                    "name": "",
                    "type": "bool"
                }
            ],
            "stateMutability": "nonpayable",
            "type": "function"
        },
        {
            "inputs": [
                {
                    "internalType": "address",
                    "name": "sender",
                    "type": "address"
                },
                {
                    "internalType": "address",
                    "name": "recipient",
                    "type": "address"
                },
                {
                    "internalType": "uint256",
                    "name": "amount",
                    "type": "uint256"
                }
            ],
            "name": "transferFrom",
            "outputs": [
                {
                    "internalType": "bool",
                    "name": "",
                    "type": "bool"
                }
            ],
            "stateMutability": "nonpayable",
            "type": "function"
        },
        {
            "inputs": [
                {
                    "internalType": "address",
                    "name": "newOwner",
                    "type": "address"
                }
            ],
            "name": "transferOwnership",
            "outputs": [],
            "stateMutability": "nonpayable",
            "type": "function"
        }
    ],
    "bytecode": "0x60806040523480156200001157600080fd5b5060408051808201825260058152642a37b5b2b760d91b60208083019182528351808501909452600484526329a4a7a760e11b9084015281519192916200005b91600391620000ea565b50805162000071906004906020840190620000ea565b5050506200008e620000886200009460201b60201c565b62000098565b620001cd565b3390565b600580546001600160a01b038381166001600160a01b0319831681179093556040519116919082907f8be0079c531659141344cd1fd0a4f28419497f9722a3daafe3b4186f6b6457e090600090a35050565b828054620000f89062000190565b90600052602060002090601f0160209004810192826200011c576000855562000167565b82601f106200013757805160ff191683800117855562000167565b8280016001018555821562000167579182015b82811115620001675782518255916020019190600101906200014a565b506200017592915062000179565b5090565b5b808211156200017557600081556001016200017a565b600281046001821680620001a557607f821691505b60208210811415620001c757634e487b7160e01b600052602260045260246000fd5b50919050565b610d0e80620001dd6000396000f3fe608060405234801561001057600080fd5b50600436106100c55760003560e01c806306fdde03146100ca578063095ea7b3146100e857806318160ddd1461010857806323b872dd1461011d578063313ce56714610130578063395093511461014557806370a0823114610158578063715018a61461016b5780638da5cb5b1461017557806395d89b411461018a5780639dc0964314610192578063a457c2d7146101a5578063a9059cbb146101b8578063dd62ed3e146101cb578063f2fde38b146101de575b600080fd5b6100d26101f1565b6040516100df919061095c565b60405180910390f35b6100fb6100f6366004610914565b610283565b6040516100df9190610951565b6101106102a0565b6040516100df9190610c42565b6100fb61012b3660046108d9565b6102a6565b61013861033f565b6040516100df9190610c4b565b6100fb610153366004610914565b610344565b610110610166366004610886565b610398565b6101736103b7565b005b61017d610402565b6040516100df919061093d565b6100d2610411565b6101736101a0366004610914565b610420565b6100fb6101b3366004610914565b61046d565b6100fb6101c6366004610914565b6104e6565b6101106101d93660046108a7565b6104fa565b6101736101ec366004610886565b610525565b60606003805461020090610c7d565b80601f016020809104026020016040519081016040528092919081815260200182805461022c90610c7d565b80156102795780601f1061024e57610100808354040283529160200191610279565b820191906000526020600020905b81548152906001019060200180831161025c57829003601f168201915b5050505050905090565b6000610297610290610596565b848461059a565b50600192915050565b60025490565b60006102b384848461064e565b6001600160a01b0384166000908152600160205260408120816102d4610596565b6001600160a01b03166001600160a01b03168152602001908152602001600020549050828110156103205760405162461bcd60e51b815260040161031790610ac0565b60405180910390fd5b6103348561032c610596565b85840361059a565b506001949350505050565b601290565b6000610297610351610596565b84846001600061035f610596565b6001600160a01b03908116825260208083019390935260409182016000908120918b16815292529020546103939190610c59565b61059a565b6001600160a01b0381166000908152602081905260409020545b919050565b6103bf610596565b6001600160a01b03166103d0610402565b6001600160a01b0316146103f65760405162461bcd60e51b815260040161031790610b08565b6104006000610766565b565b6005546001600160a01b031690565b60606004805461020090610c7d565b610428610596565b6001600160a01b0316610439610402565b6001600160a01b03161461045f5760405162461bcd60e51b815260040161031790610b08565b61046982826107b8565b5050565b6000806001600061047c610596565b6001600160a01b03908116825260208083019390935260409182016000908120918816815292529020549050828110156104c85760405162461bcd60e51b815260040161031790610bc6565b6104dc6104d3610596565b8585840361059a565b5060019392505050565b60006102976104f3610596565b848461064e565b6001600160a01b03918216600090815260016020908152604080832093909416825291909152205490565b61052d610596565b6001600160a01b031661053e610402565b6001600160a01b0316146105645760405162461bcd60e51b815260040161031790610b08565b6001600160a01b03811661058a5760405162461bcd60e51b8152600401610317906109f2565b61059381610766565b50565b3390565b6001600160a01b0383166105c05760405162461bcd60e51b815260040161031790610b82565b6001600160a01b0382166105e65760405162461bcd60e51b815260040161031790610a38565b6001600160a01b0380841660008181526001602090815260408083209487168084529490915290819020849055517f8c5be1e5ebec7d5bd14f71427d1e84f3dd0314c0f7b2291e5b200ac8c7c3b92590610641908590610c42565b60405180910390a3505050565b6001600160a01b0383166106745760405162461bcd60e51b815260040161031790610b3d565b6001600160a01b03821661069a5760405162461bcd60e51b8152600401610317906109af565b6106a583838361086a565b6001600160a01b038316600090815260208190526040902054818110156106de5760405162461bcd60e51b815260040161031790610a7a565b6001600160a01b03808516600090815260208190526040808220858503905591851681529081208054849290610715908490610c59565b92505081905550826001600160a01b0316846001600160a01b0316600080516020610cb98339815191528460405161074d9190610c42565b60405180910390a361076084848461086a565b50505050565b600580546001600160a01b038381166001600160a01b0319831681179093556040519116919082907f8be0079c531659141344cd1fd0a4f28419497f9722a3daafe3b4186f6b6457e090600090a35050565b6001600160a01b0382166107de5760405162461bcd60e51b815260040161031790610c0b565b6107ea6000838361086a565b80600260008282546107fc9190610c59565b90915550506001600160a01b03821660009081526020819052604081208054839290610829908490610c59565b90915550506040516001600160a01b03831690600090600080516020610cb98339815191529061085a908590610c42565b60405180910390a3610469600083835b505050565b80356001600160a01b03811681146103b257600080fd5b600060208284031215610897578081fd5b6108a08261086f565b9392505050565b600080604083850312156108b9578081fd5b6108c28361086f565b91506108d06020840161086f565b90509250929050565b6000806000606084860312156108ed578081fd5b6108f68461086f565b92506109046020850161086f565b9150604084013590509250925092565b60008060408385031215610926578182fd5b61092f8361086f565b946020939093013593505050565b6001600160a01b0391909116815260200190565b901515815260200190565b6000602080835283518082850152825b818110156109885785810183015185820160400152820161096c565b818111156109995783604083870101525b50601f01601f1916929092016040019392505050565b60208082526023908201527f45524332303a207472616e7366657220746f20746865207a65726f206164647260408201526265737360e81b606082015260800190565b60208082526026908201527f4f776e61626c653a206e6577206f776e657220697320746865207a65726f206160408201526564647265737360d01b606082015260800190565b60208082526022908201527f45524332303a20617070726f766520746f20746865207a65726f206164647265604082015261737360f01b606082015260800190565b60208082526026908201527f45524332303a207472616e7366657220616d6f756e7420657863656564732062604082015265616c616e636560d01b606082015260800190565b60208082526028908201527f45524332303a207472616e7366657220616d6f756e74206578636565647320616040820152676c6c6f77616e636560c01b606082015260800190565b6020808252818101527f4f776e61626c653a2063616c6c6572206973206e6f7420746865206f776e6572604082015260600190565b60208082526025908201527f45524332303a207472616e736665722066726f6d20746865207a65726f206164604082015264647265737360d81b606082015260800190565b60208082526024908201527f45524332303a20617070726f76652066726f6d20746865207a65726f206164646040820152637265737360e01b606082015260800190565b60208082526025908201527f45524332303a2064656372656173656420616c6c6f77616e63652062656c6f77604082015264207a65726f60d81b606082015260800190565b6020808252601f908201527f45524332303a206d696e7420746f20746865207a65726f206164647265737300604082015260600190565b90815260200190565b60ff91909116815260200190565b60008219821115610c7857634e487b7160e01b81526011600452602481fd5b500190565b600281046001821680610c9157607f821691505b60208210811415610cb257634e487b7160e01b600052602260045260246000fd5b5091905056feddf252ad1be2c89b69c2b068fc378daa952ba7f163c4a11628f55a4df523b3efa2646970667358221220d6944e82c8f2a63328bcdd8b21c33fc7a2cac2e78ce7b3101dac908efd54c06864736f6c63430008000033",
    "linkReferences": {},
    "deployedLinkReferences": {}
}